{
  "contractName": "LeveragedAMM",
  "abi": [
    {
      "inputs": [
        {
          "internalType": "address",
          "name": "tokenUsdc_",
          "type": "address"
        }
      ],
      "stateMutability": "nonpayable",
      "type": "constructor"
    },
    {
      "anonymous": false,
      "inputs": [
        {
          "indexed": true,
          "internalType": "address",
          "name": "previousOwner",
          "type": "address"
        },
        {
          "indexed": true,
          "internalType": "address",
          "name": "newOwner",
          "type": "address"
        }
      ],
      "name": "OwnershipTransferred",
      "type": "event"
    },
    {
      "inputs": [],
      "name": "maxLeverage",
      "outputs": [
        {
          "internalType": "uint256",
          "name": "",
          "type": "uint256"
        }
      ],
      "stateMutability": "view",
      "type": "function"
    },
    {
      "inputs": [],
      "name": "owner",
      "outputs": [
        {
          "internalType": "address",
          "name": "",
          "type": "address"
        }
      ],
      "stateMutability": "view",
      "type": "function"
    },
    {
      "inputs": [],
      "name": "renounceOwnership",
      "outputs": [],
      "stateMutability": "nonpayable",
      "type": "function"
    },
    {
      "inputs": [],
      "name": "reserveEth",
      "outputs": [
        {
          "internalType": "uint256",
          "name": "",
          "type": "uint256"
        }
      ],
      "stateMutability": "view",
      "type": "function"
    },
    {
      "inputs": [],
      "name": "reserveUsdc",
      "outputs": [
        {
          "internalType": "uint256",
          "name": "",
          "type": "uint256"
        }
      ],
      "stateMutability": "view",
      "type": "function"
    },
    {
      "inputs": [],
      "name": "tokenUsdc",
      "outputs": [
        {
          "internalType": "contract IERC20",
          "name": "",
          "type": "address"
        }
      ],
      "stateMutability": "view",
      "type": "function"
    },
    {
      "inputs": [
        {
          "internalType": "address",
          "name": "newOwner",
          "type": "address"
        }
      ],
      "name": "transferOwnership",
      "outputs": [],
      "stateMutability": "nonpayable",
      "type": "function"
    },
    {
      "stateMutability": "payable",
      "type": "receive"
    },
    {
      "inputs": [
        {
          "internalType": "address",
          "name": "account",
          "type": "address"
        }
      ],
      "name": "usdcCashOf",
      "outputs": [
        {
          "internalType": "uint256",
          "name": "",
          "type": "uint256"
        }
      ],
      "stateMutability": "view",
      "type": "function"
    },
    {
      "inputs": [
        {
          "internalType": "address",
          "name": "account",
          "type": "address"
        }
      ],
      "name": "ethCashOf",
      "outputs": [
        {
          "internalType": "uint256",
          "name": "",
          "type": "uint256"
        }
      ],
      "stateMutability": "view",
      "type": "function"
    },
    {
      "inputs": [
        {
          "internalType": "uint256",
          "name": "amount",
          "type": "uint256"
        }
      ],
      "name": "depositUsdc",
      "outputs": [],
      "stateMutability": "nonpayable",
      "type": "function"
    },
    {
      "inputs": [
        {
          "internalType": "uint256",
          "name": "usdc",
          "type": "uint256"
        },
        {
          "internalType": "uint256",
          "name": "leverage",
          "type": "uint256"
        }
      ],
      "name": "calculateEthPosition",
      "outputs": [
        {
          "internalType": "uint256",
          "name": "",
          "type": "uint256"
        }
      ],
      "stateMutability": "view",
      "type": "function"
    },
    {
      "inputs": [
        {
          "internalType": "uint256",
          "name": "eth",
          "type": "uint256"
        },
        {
          "internalType": "uint256",
          "name": "leverage",
          "type": "uint256"
        }
      ],
      "name": "calculateUsdcPosition",
      "outputs": [
        {
          "internalType": "uint256",
          "name": "",
          "type": "uint256"
        }
      ],
      "stateMutability": "view",
      "type": "function"
    },
    {
      "inputs": [
        {
          "internalType": "uint256",
          "name": "usdc",
          "type": "uint256"
        },
        {
          "internalType": "uint256",
          "name": "leverage",
          "type": "uint256"
        }
      ],
      "name": "calculateEthForExactUsdcPosition",
      "outputs": [
        {
          "internalType": "uint256",
          "name": "",
          "type": "uint256"
        }
      ],
      "stateMutability": "view",
      "type": "function"
    },
    {
      "inputs": [
        {
          "internalType": "uint256",
          "name": "eth",
          "type": "uint256"
        },
        {
          "internalType": "uint256",
          "name": "leverage",
          "type": "uint256"
        }
      ],
      "name": "calculateUsdcForExactEthPosition",
      "outputs": [
        {
          "internalType": "uint256",
          "name": "",
          "type": "uint256"
        }
      ],
      "stateMutability": "view",
      "type": "function"
    },
    {
      "inputs": [
        {
          "internalType": "address",
          "name": "account",
          "type": "address"
        }
      ],
      "name": "ethPositionValueOf",
      "outputs": [
        {
          "internalType": "uint256",
          "name": "",
          "type": "uint256"
        }
      ],
      "stateMutability": "view",
      "type": "function"
    },
    {
      "inputs": [
        {
          "internalType": "address",
          "name": "account",
          "type": "address"
        }
      ],
      "name": "ethPositionRemainValueOf",
      "outputs": [
        {
          "internalType": "uint256",
          "name": "",
          "type": "uint256"
        }
      ],
      "stateMutability": "view",
      "type": "function"
    },
    {
      "inputs": [
        {
          "internalType": "address",
          "name": "account",
          "type": "address"
        }
      ],
      "name": "usdcPositionValueOf",
      "outputs": [
        {
          "internalType": "uint256",
          "name": "",
          "type": "uint256"
        }
      ],
      "stateMutability": "view",
      "type": "function"
    },
    {
      "inputs": [
        {
          "internalType": "address",
          "name": "account",
          "type": "address"
        }
      ],
      "name": "usdcPositionRemainValueOf",
      "outputs": [
        {
          "internalType": "uint256",
          "name": "",
          "type": "uint256"
        }
      ],
      "stateMutability": "view",
      "type": "function"
    },
    {
      "inputs": [
        {
          "internalType": "uint256",
          "name": "positionValue",
          "type": "uint256"
        }
      ],
      "name": "openEthPosition",
      "outputs": [],
      "stateMutability": "nonpayable",
      "type": "function"
    },
    {
      "inputs": [
        {
          "internalType": "uint256",
          "name": "positionValue",
          "type": "uint256"
        }
      ],
      "name": "openUsdcPosition",
      "outputs": [],
      "stateMutability": "nonpayable",
      "type": "function"
    },
    {
      "inputs": [
        {
          "internalType": "uint256",
          "name": "positionValue",
          "type": "uint256"
        }
      ],
      "name": "closeEthPosition",
      "outputs": [],
      "stateMutability": "nonpayable",
      "type": "function"
    },
    {
      "inputs": [
        {
          "internalType": "uint256",
          "name": "positionValue",
          "type": "uint256"
        }
      ],
      "name": "closeUsdcPosition",
      "outputs": [],
      "stateMutability": "nonpayable",
      "type": "function"
    }
  ],
  "bytecode": "0x60c06040523480156200001157600080fd5b506040516200260a3803806200260a8339818101604052810190620000379190620001d1565b620000576200004b6200009b60201b60201c565b620000a360201b60201c565b8073ffffffffffffffffffffffffffffffffffffffff1660808173ffffffffffffffffffffffffffffffffffffffff1681525050600a60a081815250505062000203565b600033905090565b60008060009054906101000a900473ffffffffffffffffffffffffffffffffffffffff169050816000806101000a81548173ffffffffffffffffffffffffffffffffffffffff021916908373ffffffffffffffffffffffffffffffffffffffff1602179055508173ffffffffffffffffffffffffffffffffffffffff168173ffffffffffffffffffffffffffffffffffffffff167f8be0079c531659141344cd1fd0a4f28419497f9722a3daafe3b4186f6b6457e060405160405180910390a35050565b600080fd5b600073ffffffffffffffffffffffffffffffffffffffff82169050919050565b600062000199826200016c565b9050919050565b620001ab816200018c565b8114620001b757600080fd5b50565b600081519050620001cb81620001a0565b92915050565b600060208284031215620001ea57620001e962000167565b5b6000620001fa84828501620001ba565b91505092915050565b60805160a0516123b06200025a6000396000818161067e0152818161086801528181610932015281816109fc01528181610fe60152818161109501526114720152600081816106fd0152610ca301526123b06000f3fe6080604052600436106101395760003560e01c80638da5cb5b116100ab578063c966ad161161006f578063c966ad1614610517578063dcd13dba14610554578063ef21d3e61461057d578063f2fde38b146105ba578063fd32860a146105e3578063fe19b56f14610620576101fe565b80638da5cb5b1461043057806395e5922c1461045b578063a9408fdf14610486578063ae3302c2146104af578063c65deaa8146104da576101fe565b806352a02065116100fd57806352a02065146103205780635aa511391461035d5780635eb94d2a1461039a578063715018a6146103c55780637205de68146103dc578063899b152814610405576101fe565b80630e9806de146102035780632357928e146102405780632de4efd7146102695780634305e568146102a65780634779766b146102e3576101fe565b366101fe57610146610649565b73ffffffffffffffffffffffffffffffffffffffff16610164610651565b73ffffffffffffffffffffffffffffffffffffffff16141561019e5734600260008282546101929190611b4e565b925050819055506101fc565b34600460006101ab610649565b73ffffffffffffffffffffffffffffffffffffffff1673ffffffffffffffffffffffffffffffffffffffff16815260200190815260200160002060008282546101f49190611b4e565b925050819055505b005b600080fd5b34801561020f57600080fd5b5061022a60048036038101906102259190611bd5565b61067a565b6040516102379190611c24565b60405180910390f35b34801561024c57600080fd5b5061026760048036038101906102629190611c3f565b6106fb565b005b34801561027557600080fd5b50610290600480360381019061028b9190611bd5565b610864565b60405161029d9190611c24565b60405180910390f35b3480156102b257600080fd5b506102cd60048036038101906102c89190611cca565b6108e5565b6040516102da9190611c24565b60405180910390f35b3480156102ef57600080fd5b5061030a60048036038101906103059190611bd5565b61092e565b6040516103179190611c24565b60405180910390f35b34801561032c57600080fd5b5061034760048036038101906103429190611cca565b6109af565b6040516103549190611c24565b60405180910390f35b34801561036957600080fd5b50610384600480360381019061037f9190611bd5565b6109f8565b6040516103919190611c24565b60405180910390f35b3480156103a657600080fd5b506103af610a79565b6040516103bc9190611c24565b60405180910390f35b3480156103d157600080fd5b506103da610a7f565b005b3480156103e857600080fd5b5061040360048036038101906103fe9190611c3f565b610b07565b005b34801561041157600080fd5b5061041a610c9b565b6040516104279190611c24565b60405180910390f35b34801561043c57600080fd5b50610445610651565b6040516104529190611d06565b60405180910390f35b34801561046757600080fd5b50610470610ca1565b60405161047d9190611d80565b60405180910390f35b34801561049257600080fd5b506104ad60048036038101906104a89190611c3f565b610cc5565b005b3480156104bb57600080fd5b506104c4610fe4565b6040516104d19190611c24565b60405180910390f35b3480156104e657600080fd5b5061050160048036038101906104fc9190611cca565b611008565b60405161050e9190611c24565b60405180910390f35b34801561052357600080fd5b5061053e60048036038101906105399190611cca565b611051565b60405161054b9190611c24565b60405180910390f35b34801561056057600080fd5b5061057b60048036038101906105769190611c3f565b61110f565b005b34801561058957600080fd5b506105a4600480360381019061059f9190611cca565b61142e565b6040516105b19190611c24565b60405180910390f35b3480156105c657600080fd5b506105e160048036038101906105dc9190611cca565b6114ec565b005b3480156105ef57600080fd5b5061060a60048036038101906106059190611cca565b6115e4565b6040516106179190611c24565b60405180910390f35b34801561062c57600080fd5b5061064760048036038101906106429190611c3f565b61162d565b005b600033905090565b60008060009054906101000a900473ffffffffffffffffffffffffffffffffffffffff16905090565b60007f00000000000000000000000000000000000000000000000000000000000000008211156106df576040517f08c379a00000000000000000000000000000000000000000000000000000000081526004016106d690611e1e565b60405180910390fd5b6106f382846106ee9190611e6d565b6117c1565b905092915050565b7f000000000000000000000000000000000000000000000000000000000000000073ffffffffffffffffffffffffffffffffffffffff166323b872dd61073f610649565b30846040518463ffffffff1660e01b815260040161075f93929190611e9e565b6020604051808303816000875af115801561077e573d6000803e3d6000fd5b505050506040513d601f19601f820116820180604052508101906107a29190611f0d565b506107ab610649565b73ffffffffffffffffffffffffffffffffffffffff166107c9610651565b73ffffffffffffffffffffffffffffffffffffffff1614156108035780600160008282546107f79190611b4e565b92505081905550610861565b8060036000610810610649565b73ffffffffffffffffffffffffffffffffffffffff1673ffffffffffffffffffffffffffffffffffffffff16815260200190815260200160002060008282546108599190611b4e565b925050819055505b50565b60007f00000000000000000000000000000000000000000000000000000000000000008211156108c9576040517f08c379a00000000000000000000000000000000000000000000000000000000081526004016108c090611e1e565b60405180910390fd5b6108dd82846108d89190611f3a565b611843565b905092915050565b6000600560008373ffffffffffffffffffffffffffffffffffffffff1673ffffffffffffffffffffffffffffffffffffffff168152602001908152602001600020549050919050565b60007f0000000000000000000000000000000000000000000000000000000000000000821115610993576040517f08c379a000000000000000000000000000000000000000000000000000000000815260040161098a90611e1e565b60405180910390fd5b6109a782846109a29190611f3a565b6118c5565b905092915050565b6000600360008373ffffffffffffffffffffffffffffffffffffffff1673ffffffffffffffffffffffffffffffffffffffff168152602001908152602001600020549050919050565b60007f0000000000000000000000000000000000000000000000000000000000000000821115610a5d576040517f08c379a0000000000000000000000000000000000000000000000000000000008152600401610a5490611e1e565b60405180910390fd5b610a718284610a6c9190611e6d565b611947565b905092915050565b60015481565b610a87610649565b73ffffffffffffffffffffffffffffffffffffffff16610aa5610651565b73ffffffffffffffffffffffffffffffffffffffff1614610afb576040517f08c379a0000000000000000000000000000000000000000000000000000000008152600401610af290611fe0565b60405180910390fd5b610b0560006119c9565b565b610b0f610649565b73ffffffffffffffffffffffffffffffffffffffff16610b2d610651565b73ffffffffffffffffffffffffffffffffffffffff161415610b84576040517f08c379a0000000000000000000000000000000000000000000000000000000008152600401610b7b9061204c565b60405180910390fd5b610b94610b8f610649565b61142e565b811115610bd6576040517f08c379a0000000000000000000000000000000000000000000000000000000008152600401610bcd906120de565b60405180910390fd5b8060056000610be3610649565b73ffffffffffffffffffffffffffffffffffffffff1673ffffffffffffffffffffffffffffffffffffffff1681526020019081526020016000206000828254610c2c9190611b4e565b92505081905550610c3c81611a8d565b60076000610c48610649565b73ffffffffffffffffffffffffffffffffffffffff1673ffffffffffffffffffffffffffffffffffffffff1681526020019081526020016000206000828254610c919190611b4e565b9250508190555050565b60025481565b7f000000000000000000000000000000000000000000000000000000000000000081565b610ccd610649565b73ffffffffffffffffffffffffffffffffffffffff16610ceb610651565b73ffffffffffffffffffffffffffffffffffffffff161415610d42576040517f08c379a0000000000000000000000000000000000000000000000000000000008152600401610d399061204c565b60405180910390fd5b610d52610d4d610649565b6108e5565b811115610d94576040517f08c379a0000000000000000000000000000000000000000000000000000000008152600401610d8b90612170565b60405180910390fd5b600060056000610da2610649565b73ffffffffffffffffffffffffffffffffffffffff1673ffffffffffffffffffffffffffffffffffffffff168152602001908152602001600020548260076000610dea610649565b73ffffffffffffffffffffffffffffffffffffffff1673ffffffffffffffffffffffffffffffffffffffff16815260200190815260200160002054610e2f9190611f3a565b610e399190611e6d565b90506000610e4682611ad1565b90508260056000610e55610649565b73ffffffffffffffffffffffffffffffffffffffff1673ffffffffffffffffffffffffffffffffffffffff1681526020019081526020016000206000828254610e9e9190612190565b925050819055508160076000610eb2610649565b73ffffffffffffffffffffffffffffffffffffffff1673ffffffffffffffffffffffffffffffffffffffff1681526020019081526020016000206000828254610efb9190612190565b92505081905550828110610f76578281610f159190612190565b60046000610f21610649565b73ffffffffffffffffffffffffffffffffffffffff1673ffffffffffffffffffffffffffffffffffffffff1681526020019081526020016000206000828254610f6a9190611b4e565b92505081905550610fdf565b8083610f829190612190565b60046000610f8e610649565b73ffffffffffffffffffffffffffffffffffffffff1673ffffffffffffffffffffffffffffffffffffffff1681526020019081526020016000206000828254610fd79190612190565b925050819055505b505050565b7f000000000000000000000000000000000000000000000000000000000000000081565b6000600460008373ffffffffffffffffffffffffffffffffffffffff1673ffffffffffffffffffffffffffffffffffffffff168152602001908152602001600020549050919050565b6000600660008373ffffffffffffffffffffffffffffffffffffffff1673ffffffffffffffffffffffffffffffffffffffff168152602001908152602001600020547f0000000000000000000000000000000000000000000000000000000000000000600360008573ffffffffffffffffffffffffffffffffffffffff1673ffffffffffffffffffffffffffffffffffffffff168152602001908152602001600020546110fe9190611f3a565b6111089190612190565b9050919050565b611117610649565b73ffffffffffffffffffffffffffffffffffffffff16611135610651565b73ffffffffffffffffffffffffffffffffffffffff16141561118c576040517f08c379a00000000000000000000000000000000000000000000000000000000081526004016111839061204c565b60405180910390fd5b61119c611197610649565b6115e4565b8111156111de576040517f08c379a00000000000000000000000000000000000000000000000000000000081526004016111d590612170565b60405180910390fd5b6000600660006111ec610649565b73ffffffffffffffffffffffffffffffffffffffff1673ffffffffffffffffffffffffffffffffffffffff168152602001908152602001600020548260086000611234610649565b73ffffffffffffffffffffffffffffffffffffffff1673ffffffffffffffffffffffffffffffffffffffff168152602001908152602001600020546112799190611f3a565b6112839190611e6d565b9050600061129082611a8d565b9050826006600061129f610649565b73ffffffffffffffffffffffffffffffffffffffff1673ffffffffffffffffffffffffffffffffffffffff16815260200190815260200160002060008282546112e89190612190565b9250508190555081600860006112fc610649565b73ffffffffffffffffffffffffffffffffffffffff1673ffffffffffffffffffffffffffffffffffffffff16815260200190815260200160002060008282546113459190612190565b925050819055508281106113c057828161135f9190612190565b6003600061136b610649565b73ffffffffffffffffffffffffffffffffffffffff1673ffffffffffffffffffffffffffffffffffffffff16815260200190815260200160002060008282546113b49190611b4e565b92505081905550611429565b80836113cc9190612190565b600360006113d8610649565b73ffffffffffffffffffffffffffffffffffffffff1673ffffffffffffffffffffffffffffffffffffffff16815260200190815260200160002060008282546114219190612190565b925050819055505b505050565b6000600560008373ffffffffffffffffffffffffffffffffffffffff1673ffffffffffffffffffffffffffffffffffffffff168152602001908152602001600020547f0000000000000000000000000000000000000000000000000000000000000000600360008573ffffffffffffffffffffffffffffffffffffffff1673ffffffffffffffffffffffffffffffffffffffff168152602001908152602001600020546114db9190611f3a565b6114e59190612190565b9050919050565b6114f4610649565b73ffffffffffffffffffffffffffffffffffffffff16611512610651565b73ffffffffffffffffffffffffffffffffffffffff1614611568576040517f08c379a000000000000000000000000000000000000000000000000000000000815260040161155f90611fe0565b60405180910390fd5b600073ffffffffffffffffffffffffffffffffffffffff168173ffffffffffffffffffffffffffffffffffffffff1614156115d8576040517f08c379a00000000000000000000000000000000000000000000000000000000081526004016115cf90612236565b60405180910390fd5b6115e1816119c9565b50565b6000600660008373ffffffffffffffffffffffffffffffffffffffff1673ffffffffffffffffffffffffffffffffffffffff168152602001908152602001600020549050919050565b611635610649565b73ffffffffffffffffffffffffffffffffffffffff16611653610651565b73ffffffffffffffffffffffffffffffffffffffff1614156116aa576040517f08c379a00000000000000000000000000000000000000000000000000000000081526004016116a19061204c565b60405180910390fd5b6116ba6116b5610649565b611051565b8111156116fc576040517f08c379a00000000000000000000000000000000000000000000000000000000081526004016116f3906120de565b60405180910390fd5b8060066000611709610649565b73ffffffffffffffffffffffffffffffffffffffff1673ffffffffffffffffffffffffffffffffffffffff16815260200190815260200160002060008282546117529190611b4e565b9250508190555061176281611ad1565b6008600061176e610649565b73ffffffffffffffffffffffffffffffffffffffff1673ffffffffffffffffffffffffffffffffffffffff16815260200190815260200160002060008282546117b79190611b4e565b9250508190555050565b60006001548210611807576040517f08c379a00000000000000000000000000000000000000000000000000000000081526004016117fe906122c8565b60405180910390fd5b600254826001546118189190612190565b6002546001546118289190611f3a565b6118329190611e6d565b61183c9190612190565b9050919050565b60006002548210611889576040517f08c379a0000000000000000000000000000000000000000000000000000000008152600401611880906122c8565b60405180910390fd5b816002546118979190611b4e565b6002546001546118a79190611f3a565b6118b19190611e6d565b6001546118be9190612190565b9050919050565b6000600154821061190b576040517f08c379a00000000000000000000000000000000000000000000000000000000081526004016119029061235a565b60405180910390fd5b816001546119199190611b4e565b6002546001546119299190611f3a565b6119339190611e6d565b6002546119409190612190565b9050919050565b6000600254821061198d576040517f08c379a0000000000000000000000000000000000000000000000000000000008152600401611984906122c8565b60405180910390fd5b6001548260025461199e9190612190565b6002546001546119ae9190611f3a565b6119b89190611e6d565b6119c29190612190565b9050919050565b60008060009054906101000a900473ffffffffffffffffffffffffffffffffffffffff169050816000806101000a81548173ffffffffffffffffffffffffffffffffffffffff021916908373ffffffffffffffffffffffffffffffffffffffff1602179055508173ffffffffffffffffffffffffffffffffffffffff168173ffffffffffffffffffffffffffffffffffffffff167f8be0079c531659141344cd1fd0a4f28419497f9722a3daafe3b4186f6b6457e060405160405180910390a35050565b6000611a9882611843565b90508060016000828254611aac9190612190565b925050819055508160026000828254611ac59190611b4e565b92505081905550919050565b6000611adc826118c5565b90508160016000828254611af09190611b4e565b925050819055508060026000828254611b099190612190565b92505081905550919050565b6000819050919050565b7f4e487b7100000000000000000000000000000000000000000000000000000000600052601160045260246000fd5b6000611b5982611b15565b9150611b6483611b15565b9250827fffffffffffffffffffffffffffffffffffffffffffffffffffffffffffffffff03821115611b9957611b98611b1f565b5b828201905092915050565b600080fd5b611bb281611b15565b8114611bbd57600080fd5b50565b600081359050611bcf81611ba9565b92915050565b60008060408385031215611bec57611beb611ba4565b5b6000611bfa85828601611bc0565b9250506020611c0b85828601611bc0565b9150509250929050565b611c1e81611b15565b82525050565b6000602082019050611c396000830184611c15565b92915050565b600060208284031215611c5557611c54611ba4565b5b6000611c6384828501611bc0565b91505092915050565b600073ffffffffffffffffffffffffffffffffffffffff82169050919050565b6000611c9782611c6c565b9050919050565b611ca781611c8c565b8114611cb257600080fd5b50565b600081359050611cc481611c9e565b92915050565b600060208284031215611ce057611cdf611ba4565b5b6000611cee84828501611cb5565b91505092915050565b611d0081611c8c565b82525050565b6000602082019050611d1b6000830184611cf7565b92915050565b6000819050919050565b6000611d46611d41611d3c84611c6c565b611d21565b611c6c565b9050919050565b6000611d5882611d2b565b9050919050565b6000611d6a82611d4d565b9050919050565b611d7a81611d5f565b82525050565b6000602082019050611d956000830184611d71565b92915050565b600082825260208201905092915050565b7f4c6576657261676564414d4d3a206d6178206c6576657261676520697320313060008201527f2e00000000000000000000000000000000000000000000000000000000000000602082015250565b6000611e08602183611d9b565b9150611e1382611dac565b604082019050919050565b60006020820190508181036000830152611e3781611dfb565b9050919050565b7f4e487b7100000000000000000000000000000000000000000000000000000000600052601260045260246000fd5b6000611e7882611b15565b9150611e8383611b15565b925082611e9357611e92611e3e565b5b828204905092915050565b6000606082019050611eb36000830186611cf7565b611ec06020830185611cf7565b611ecd6040830184611c15565b949350505050565b60008115159050919050565b611eea81611ed5565b8114611ef557600080fd5b50565b600081519050611f0781611ee1565b92915050565b600060208284031215611f2357611f22611ba4565b5b6000611f3184828501611ef8565b91505092915050565b6000611f4582611b15565b9150611f5083611b15565b9250817fffffffffffffffffffffffffffffffffffffffffffffffffffffffffffffffff0483118215151615611f8957611f88611b1f565b5b828202905092915050565b7f4f776e61626c653a2063616c6c6572206973206e6f7420746865206f776e6572600082015250565b6000611fca602083611d9b565b9150611fd582611f94565b602082019050919050565b60006020820190508181036000830152611ff981611fbd565b9050919050565b7f4c65766572616765414d4d3a2063616c6c657220697320746865206f776e6572600082015250565b6000612036602083611d9b565b915061204182612000565b602082019050919050565b6000602082019050818103600083015261206581612029565b9050919050565b7f4c6576657261676564414d4d3a206f7574206f662072656d61696e20706f736960008201527f74696f6e2076616c756500000000000000000000000000000000000000000000602082015250565b60006120c8602a83611d9b565b91506120d38261206c565b604082019050919050565b600060208201905081810360008301526120f7816120bb565b9050919050565b7f4c6576657261676564414d4d3a206f7574206f6620706f736974696f6e20766160008201527f6c75650000000000000000000000000000000000000000000000000000000000602082015250565b600061215a602383611d9b565b9150612165826120fe565b604082019050919050565b600060208201905081810360008301526121898161214d565b9050919050565b600061219b82611b15565b91506121a683611b15565b9250828210156121b9576121b8611b1f565b5b828203905092915050565b7f4f776e61626c653a206e6577206f776e657220697320746865207a65726f206160008201527f6464726573730000000000000000000000000000000000000000000000000000602082015250565b6000612220602683611d9b565b915061222b826121c4565b604082019050919050565b6000602082019050818103600083015261224f81612213565b9050919050565b7f4c6576657261676564414d4d3a206f7574206f6620726573657276652065746860008201527f2e00000000000000000000000000000000000000000000000000000000000000602082015250565b60006122b2602183611d9b565b91506122bd82612256565b604082019050919050565b600060208201905081810360008301526122e1816122a5565b9050919050565b7f4c6576657261676564414d4d3a206f7574206f6620726573657276652075736460008201527f632e000000000000000000000000000000000000000000000000000000000000602082015250565b6000612344602283611d9b565b915061234f826122e8565b604082019050919050565b6000602082019050818103600083015261237381612337565b905091905056fea2646970667358221220252f362dfdde97b57198232061bb46e09f55ca2386536beec1adfebae3e64e7364736f6c634300080c0033",
  "immutableReferences": {
    "899": [
      {
        "length": 32,
        "start": 1789
      },
      {
        "length": 32,
        "start": 3235
      }
    ],
    "901": [
      {
        "length": 32,
        "start": 1662
      },
      {
        "length": 32,
        "start": 2152
      },
      {
        "length": 32,
        "start": 2354
      },
      {
        "length": 32,
        "start": 2556
      },
      {
        "length": 32,
        "start": 4070
      },
      {
        "length": 32,
        "start": 4245
      },
      {
        "length": 32,
        "start": 5234
      }
    ]
  },
  "source": "// SPDX-License-Identifier: MIT\npragma solidity >=0.4.22 <0.9.0;\n\nimport \"@openzeppelin/contracts/access/Ownable.sol\";\nimport \"@openzeppelin/contracts/token/ERC20/IERC20.sol\";\n\ncontract LeveragedAMM is Ownable {\n    IERC20 public immutable tokenUsdc;\n    uint256 public immutable maxLeverage;\n\n    uint256 public reserveUsdc;\n    uint256 public reserveEth;\n\n    mapping(address => uint256) private _usdcCash;\n    mapping(address => uint256) private _ethCash;\n    mapping(address => uint256) private _usdcPositionValue;\n    mapping(address => uint256) private _ethPositionValue;\n    mapping(address => uint256) private _usdcPosition;\n    mapping(address => uint256) private _ethPosition;\n\n    modifier notOwner() {\n        require(owner() != _msgSender(), \"LeverageAMM: caller is the owner\");\n        _;\n    }\n\n    receive() external payable {\n        if (owner() == _msgSender()) {\n            reserveEth += msg.value;\n        } else {\n            _ethCash[_msgSender()] += msg.value;\n        }\n    }\n\n    constructor(address tokenUsdc_) Ownable() {\n        tokenUsdc = IERC20(tokenUsdc_);\n        maxLeverage = 10;\n    }\n\n    function usdcCashOf(address account) public view returns(uint256) {\n        return _usdcCash[account];\n    }\n\n    function ethCashOf(address account) public view returns(uint256) {\n        return _ethCash[account];\n    }\n\n    function depositUsdc(uint256 amount) public {\n        tokenUsdc.transferFrom(_msgSender(), address(this), amount);\n        if (owner() == _msgSender()) {\n            reserveUsdc += amount;\n        } else {\n            _usdcCash[_msgSender()] += amount;\n        }\n    }\n\n    function _calculateSwappedEth(uint256 usdcIn) internal view returns(uint256) {\n        require(usdcIn < reserveUsdc, \"LeveragedAMM: out of reserve usdc.\");\n        return reserveEth - ((reserveUsdc * reserveEth) / (reserveUsdc + usdcIn));\n    }\n\n    function _calculateSwappedUsdc(uint256 ethIn) internal view returns(uint256) {\n        require(ethIn < reserveEth, \"LeveragedAMM: out of reserve eth.\");\n        return reserveUsdc - ((reserveUsdc * reserveEth) / (reserveEth + ethIn));\n    }\n\n    function _calculateLeverageUsdc(uint256 ethIn) internal view returns(uint256) {\n        require(ethIn < reserveEth, \"LeveragedAMM: out of reserve eth.\");\n        return (reserveUsdc * reserveEth) / (reserveEth - ethIn) - reserveUsdc;\n    }\n\n    function _calculateLeverageEth(uint256 usdcIn) internal view returns(uint256) {\n        require(usdcIn < reserveUsdc, \"LeveragedAMM: out of reserve eth.\");\n        return (reserveUsdc * reserveEth) / (reserveUsdc - usdcIn) - reserveEth;\n    }\n\n    function _doSwapEth(uint256 usdcIn) internal returns(uint256 ethOut) {\n        ethOut = _calculateSwappedEth(usdcIn);\n        reserveUsdc += usdcIn;\n        reserveEth -= ethOut;\n    }\n\n    function _doSwapUsdc(uint256 ethIn) internal returns(uint256 usdcOut) {\n        usdcOut = _calculateSwappedUsdc(ethIn);\n        reserveUsdc -= usdcOut;\n        reserveEth += ethIn;\n    }\n\n    function calculateEthPosition(uint256 usdc, uint256 leverage) public view returns(uint256) {\n        require(leverage <= maxLeverage, \"LeveragedAMM: max leverage is 10.\");\n        return _calculateSwappedEth(usdc * leverage);\n    }\n\n    function calculateUsdcPosition(uint256 eth, uint256 leverage) public view returns(uint256) {\n        require(leverage <= maxLeverage, \"LeveragedAMM: max leverage is 10.\");\n        return _calculateSwappedUsdc(eth * leverage);\n    }\n\n    function calculateEthForExactUsdcPosition(uint256 usdc, uint256 leverage) public view returns(uint256) {\n        require(leverage <= maxLeverage, \"LeveragedAMM: max leverage is 10.\");\n        return _calculateLeverageEth(usdc / leverage);\n    }\n\n    function calculateUsdcForExactEthPosition(uint256 eth, uint256 leverage) public view returns(uint256) {\n        require(leverage <= maxLeverage, \"LeveragedAMM: max leverage is 10.\");\n        return _calculateLeverageUsdc(eth / leverage);\n    }\n\n    function ethPositionValueOf(address account) public view returns(uint256) {\n        return _ethPositionValue[account];\n    }\n\n    function ethPositionRemainValueOf(address account) public view returns(uint256) {\n        return (_usdcCash[account] * maxLeverage) - _ethPositionValue[account];\n    }\n\n    function usdcPositionValueOf(address account) public view returns(uint256) {\n        return _usdcPositionValue[account];\n    }\n\n    function usdcPositionRemainValueOf(address account) public view returns(uint256) {\n        return (_usdcCash[account] * maxLeverage) - _usdcPositionValue[account];\n    }\n\n    function openEthPosition(uint256 positionValue) public notOwner {\n        require(positionValue <= ethPositionRemainValueOf(_msgSender()), \"LeveragedAMM: out of remain position value\");\n        _ethPositionValue[_msgSender()] += positionValue;\n        _ethPosition[_msgSender()] += _doSwapEth(positionValue);\n    }\n\n    function openUsdcPosition(uint256 positionValue) public notOwner {\n        require(positionValue <= usdcPositionRemainValueOf(_msgSender()), \"LeveragedAMM: out of remain position value\");\n        _usdcPositionValue[_msgSender()] += positionValue;\n        _usdcPosition[_msgSender()] += _doSwapUsdc(positionValue);\n    }\n\n    function closeEthPosition(uint256 positionValue) public notOwner {\n        require(positionValue <= ethPositionValueOf(_msgSender()), \"LeveragedAMM: out of position value\");\n        uint256 closedPosition = (_ethPosition[_msgSender()] * positionValue) / _ethPositionValue[_msgSender()];\n        uint256 swappedUsdc = _doSwapUsdc(closedPosition);\n        _ethPositionValue[_msgSender()] -= positionValue;\n        _ethPosition[_msgSender()] -= closedPosition;\n        if (swappedUsdc >= positionValue) {\n            _usdcCash[_msgSender()] += swappedUsdc - positionValue;\n        } else {\n            _usdcCash[_msgSender()] -= positionValue - swappedUsdc;\n        }\n    }\n\n    function closeUsdcPosition(uint256 positionValue) public notOwner {\n        require(positionValue <= usdcPositionValueOf(_msgSender()), \"LeveragedAMM: out of position value\");\n        uint256 closedPosition = (_usdcPosition[_msgSender()] * positionValue) / _usdcPositionValue[_msgSender()];\n        uint256 swappedEth = _doSwapEth(closedPosition);\n        _usdcPositionValue[_msgSender()] -= positionValue;\n        _usdcPosition[_msgSender()] -= closedPosition;\n        if (swappedEth >= positionValue) {\n            _ethCash[_msgSender()] += swappedEth - positionValue;\n        } else {\n            _ethCash[_msgSender()] -= positionValue - swappedEth;\n        }\n    }\n}\n",
  "sourcePath": "G:\\Blockchain\\Ethereum\\AMMtest\\contracts\\LeveragedAMM.sol",
  "compiler": {
    "name": "solc",
    "version": "0.8.12+commit.f00d7308.Emscripten.clang"
  },
  "schemaVersion": "3.4.5",
  "updatedAt": "2022-04-18T09:04:58.310Z",
  "devdoc": {
    "kind": "dev",
    "methods": {
      "owner()": {
        "details": "Returns the address of the current owner."
      },
      "renounceOwnership()": {
        "details": "Leaves the contract without owner. It will not be possible to call `onlyOwner` functions anymore. Can only be called by the current owner. NOTE: Renouncing ownership will leave the contract without an owner, thereby removing any functionality that is only available to the owner."
      },
      "transferOwnership(address)": {
        "details": "Transfers ownership of the contract to a new account (`newOwner`). Can only be called by the current owner."
      }
    },
    "version": 1
  },
  "userdoc": {
    "kind": "user",
    "methods": {},
    "version": 1
  }
}